{"abi":[{"type":"constructor","inputs":[{"name":"_name","type":"string","internalType":"string"},{"name":"_symbol","type":"string","internalType":"string"},{"name":"_supply","type":"uint256","internalType":"uint256"},{"name":"_minter","type":"address","internalType":"address"}],"stateMutability":"nonpayable"},{"type":"function","name":"allowance","inputs":[{"name":"","type":"address","internalType":"address"},{"name":"","type":"address","internalType":"address"}],"outputs":[{"name":"","type":"uint256","internalType":"uint256"}],"stateMutability":"view"},{"type":"function","name":"approve","inputs":[{"name":"spender","type":"address","internalType":"address"},{"name":"amount","type":"uint256","internalType":"uint256"}],"outputs":[{"name":"","type":"bool","internalType":"bool"}],"stateMutability":"nonpayable"},{"type":"function","name":"balanceOf","inputs":[{"name":"","type":"address","internalType":"address"}],"outputs":[{"name":"","type":"uint256","internalType":"uint256"}],"stateMutability":"view"},{"type":"function","name":"decimals","inputs":[],"outputs":[{"name":"","type":"uint8","internalType":"uint8"}],"stateMutability":"view"},{"type":"function","name":"mint","inputs":[{"name":"to","type":"address","internalType":"address"},{"name":"amount","type":"uint256","internalType":"uint256"}],"outputs":[],"stateMutability":"nonpayable"},{"type":"function","name":"minter","inputs":[],"outputs":[{"name":"","type":"address","internalType":"address"}],"stateMutability":"view"},{"type":"function","name":"name","inputs":[],"outputs":[{"name":"","type":"string","internalType":"string"}],"stateMutability":"view"},{"type":"function","name":"symbol","inputs":[],"outputs":[{"name":"","type":"string","internalType":"string"}],"stateMutability":"view"},{"type":"function","name":"totalSupply","inputs":[],"outputs":[{"name":"","type":"uint256","internalType":"uint256"}],"stateMutability":"view"},{"type":"function","name":"transfer","inputs":[{"name":"to","type":"address","internalType":"address"},{"name":"amount","type":"uint256","internalType":"uint256"}],"outputs":[{"name":"","type":"bool","internalType":"bool"}],"stateMutability":"nonpayable"},{"type":"function","name":"transferFrom","inputs":[{"name":"from","type":"address","internalType":"address"},{"name":"to","type":"address","internalType":"address"},{"name":"amount","type":"uint256","internalType":"uint256"}],"outputs":[{"name":"","type":"bool","internalType":"bool"}],"stateMutability":"nonpayable"},{"type":"event","name":"Approval","inputs":[{"name":"owner","type":"address","indexed":true,"internalType":"address"},{"name":"spender","type":"address","indexed":true,"internalType":"address"},{"name":"value","type":"uint256","indexed":false,"internalType":"uint256"}],"anonymous":false},{"type":"event","name":"Transfer","inputs":[{"name":"from","type":"address","indexed":true,"internalType":"address"},{"name":"to","type":"address","indexed":true,"internalType":"address"},{"name":"value","type":"uint256","indexed":false,"internalType":"uint256"}],"anonymous":false}],"bytecode":{"object":"0x60a060405234801562000010575f80fd5b5060405162000bf738038062000bf78339810160408190526200003391620001b3565b6001600160a01b038116620000785760405162461bcd60e51b815260206004820152600760248201526610b6b4b73a32b960c91b604482015260640160405180910390fd5b5f620000858582620002ce565b506001620000948482620002ce565b5060028290556001600160a01b03811660808190525f818152600360209081526040808320869055518581527fddf252ad1be2c89b69c2b068fc378daa952ba7f163c4a11628f55a4df523b3ef910160405180910390a35050505062000396565b634e487b7160e01b5f52604160045260245ffd5b5f82601f83011262000119575f80fd5b81516001600160401b0380821115620001365762000136620000f5565b604051601f8301601f19908116603f01168101908282118183101715620001615762000161620000f5565b816040528381526020925086838588010111156200017d575f80fd5b5f91505b83821015620001a0578582018301518183018401529082019062000181565b5f93810190920192909252949350505050565b5f805f8060808587031215620001c7575f80fd5b84516001600160401b0380821115620001de575f80fd5b620001ec8883890162000109565b9550602087015191508082111562000202575f80fd5b50620002118782880162000109565b60408701516060880151919550935090506001600160a01b038116811462000237575f80fd5b939692955090935050565b600181811c908216806200025757607f821691505b6020821081036200027657634e487b7160e01b5f52602260045260245ffd5b50919050565b601f821115620002c9575f81815260208120601f850160051c81016020861015620002a45750805b601f850160051c820191505b81811015620002c557828155600101620002b0565b5050505b505050565b81516001600160401b03811115620002ea57620002ea620000f5565b6200030281620002fb845462000242565b846200027c565b602080601f83116001811462000338575f8415620003205750858301515b5f19600386901b1c1916600185901b178555620002c5565b5f85815260208120601f198616915b82811015620003685788860151825594840194600190910190840162000347565b50858210156200038657878501515f19600388901b60f8161c191681555b5050505050600190811b01905550565b608051610842620003b55f395f818160cd015261048001526108425ff3fe608060405234801561000f575f80fd5b50600436106100a6575f3560e01c8063313ce5671161006e578063313ce5671461015457806340c10f191461016e57806370a082311461018357806395d89b41146101a2578063a9059cbb146101aa578063dd62ed3e146101bd575f80fd5b806306fdde03146100aa57806307546172146100c8578063095ea7b31461010757806318160ddd1461012a57806323b872dd14610141575b5f80fd5b6100b26101e7565b6040516100bf9190610625565b60405180910390f35b6100ef7f000000000000000000000000000000000000000000000000000000000000000081565b6040516001600160a01b0390911681526020016100bf565b61011a61011536600461068b565b610272565b60405190151581526020016100bf565b61013360025481565b6040519081526020016100bf565b61011a61014f3660046106b3565b6102de565b61015c601281565b60405160ff90911681526020016100bf565b61018161017c36600461068b565b610475565b005b6101336101913660046106ec565b60036020525f908152604090205481565b6100b261054a565b61011a6101b836600461068b565b610557565b6101336101cb36600461070c565b600460209081525f928352604080842090915290825290205481565b5f80546101f39061073d565b80601f016020809104026020016040519081016040528092919081815260200182805461021f9061073d565b801561026a5780601f106102415761010080835404028352916020019161026a565b820191905f5260205f20905b81548152906001019060200180831161024d57829003601f168201915b505050505081565b335f8181526004602090815260408083206001600160a01b038716808552925280832085905551919290917f8c5be1e5ebec7d5bd14f71427d1e84f3dd0314c0f7b2291e5b200ac8c7c3b925906102cc9086815260200190565b60405180910390a35060015b92915050565b5f6001600160a01b03831661030e5760405162461bcd60e51b815260040161030590610775565b60405180910390fd5b6001600160a01b0384165f908152600360205260409020548211156103455760405162461bcd60e51b815260040161030590610794565b6001600160a01b0384165f9081526004602090815260408083203384529091529020548211156103a05760405162461bcd60e51b815260206004820152600660248201526521616c6c6f7760d01b6044820152606401610305565b6001600160a01b0384165f908152600460209081526040808320338452909152812080548492906103d29084906107c6565b90915550506001600160a01b0384165f90815260036020526040812080548492906103fe9084906107c6565b90915550506001600160a01b0383165f908152600360205260408120805484929061042a9084906107d9565b92505081905550826001600160a01b0316846001600160a01b03165f805160206107ed8339815191528460405161046391815260200190565b60405180910390a35060019392505050565b336001600160a01b037f000000000000000000000000000000000000000000000000000000000000000016146104d75760405162461bcd60e51b815260206004820152600760248201526610b6b4b73a32b960c91b6044820152606401610305565b8060025f8282546104e891906107d9565b90915550506001600160a01b0382165f90815260036020526040812080548392906105149084906107d9565b90915550506040518181526001600160a01b038316905f905f805160206107ed8339815191529060200160405180910390a35050565b600180546101f39061073d565b5f6001600160a01b03831661057e5760405162461bcd60e51b815260040161030590610775565b335f908152600360205260409020548211156105ac5760405162461bcd60e51b815260040161030590610794565b335f90815260036020526040812080548492906105ca9084906107c6565b90915550506001600160a01b0383165f90815260036020526040812080548492906105f69084906107d9565b90915550506040518281526001600160a01b0384169033905f805160206107ed833981519152906020016102cc565b5f6020808352835180828501525f5b8181101561065057858101830151858201604001528201610634565b505f604082860101526040601f19601f8301168501019250505092915050565b80356001600160a01b0381168114610686575f80fd5b919050565b5f806040838503121561069c575f80fd5b6106a583610670565b946020939093013593505050565b5f805f606084860312156106c5575f80fd5b6106ce84610670565b92506106dc60208501610670565b9150604084013590509250925092565b5f602082840312156106fc575f80fd5b61070582610670565b9392505050565b5f806040838503121561071d575f80fd5b61072683610670565b915061073460208401610670565b90509250929050565b600181811c9082168061075157607f821691505b60208210810361076f57634e487b7160e01b5f52602260045260245ffd5b50919050565b602080825260059082015264217a65726f60d81b604082015260600190565b6020808252600490820152630858985b60e21b604082015260600190565b634e487b7160e01b5f52601160045260245ffd5b818103818111156102d8576102d86107b2565b808201808211156102d8576102d86107b256feddf252ad1be2c89b69c2b068fc378daa952ba7f163c4a11628f55a4df523b3efa264697066735822122028e0749cdd3a7c505311c907179947f9b8967de3f4b8875d27770015a4ec3b6864736f6c63430008140033","linkReferences":{}},"methodIdentifiers":{"allowance(address,address)":"dd62ed3e","approve(address,uint256)":"095ea7b3","balanceOf(address)":"70a08231","decimals()":"313ce567","mint(address,uint256)":"40c10f19","minter()":"07546172","name()":"06fdde03","symbol()":"95d89b41","totalSupply()":"18160ddd","transfer(address,uint256)":"a9059cbb","transferFrom(address,address,uint256)":"23b872dd"},"id":0}