{"abi":[{"type":"constructor","inputs":[{"name":"_signer","type":"address","internalType":"address"},{"name":"_pm","type":"address","internalType":"address"},{"name":"_weth","type":"address","internalType":"address"},{"name":"_treasury","type":"address","internalType":"address"},{"name":"_emergencyAdmin","type":"address","internalType":"address"}],"stateMutability":"nonpayable"},{"type":"function","name":"GLOBAL_COOLDOWN","inputs":[],"outputs":[{"name":"","type":"uint256","internalType":"uint256"}],"stateMutability":"view"},{"type":"function","name":"LISTING_FEE","inputs":[],"outputs":[{"name":"","type":"uint256","internalType":"uint256"}],"stateMutability":"view"},{"type":"function","name":"allDeployedProjects","inputs":[{"name":"","type":"uint256","internalType":"uint256"}],"outputs":[{"name":"","type":"address","internalType":"address"}],"stateMutability":"view"},{"type":"function","name":"backendSigner","inputs":[],"outputs":[{"name":"","type":"address","internalType":"address"}],"stateMutability":"view"},{"type":"function","name":"checkAndRecordCooldown","inputs":[{"name":"user","type":"address","internalType":"address"}],"outputs":[],"stateMutability":"nonpayable"},{"type":"function","name":"emergencyAdmin","inputs":[],"outputs":[{"name":"","type":"address","internalType":"address"}],"stateMutability":"view"},{"type":"function","name":"getAllProjects","inputs":[],"outputs":[{"name":"","type":"address[]","internalType":"address[]"}],"stateMutability":"view"},{"type":"function","name":"isPaused","inputs":[],"outputs":[{"name":"","type":"bool","internalType":"bool"}],"stateMutability":"view"},{"type":"function","name":"isValidFund","inputs":[{"name":"","type":"address","internalType":"address"}],"outputs":[{"name":"","type":"bool","internalType":"bool"}],"stateMutability":"view"},{"type":"function","name":"lastContributionTime","inputs":[{"name":"","type":"address","internalType":"address"}],"outputs":[{"name":"","type":"uint256","internalType":"uint256"}],"stateMutability":"view"},{"type":"function","name":"launchNewProject","inputs":[{"name":"_name","type":"string","internalType":"string"},{"name":"_symbol","type":"string","internalType":"string"},{"name":"_ipfsURI","type":"string","internalType":"string"}],"outputs":[{"name":"","type":"address","internalType":"address"}],"stateMutability":"payable"},{"type":"function","name":"platformTreasury","inputs":[],"outputs":[{"name":"","type":"address","internalType":"address"}],"stateMutability":"view"},{"type":"function","name":"positionManager","inputs":[],"outputs":[{"name":"","type":"address","internalType":"address"}],"stateMutability":"view"},{"type":"function","name":"setEmergencyAdmin","inputs":[{"name":"_newAdmin","type":"address","internalType":"address"}],"outputs":[],"stateMutability":"nonpayable"},{"type":"function","name":"setProtocolPause","inputs":[{"name":"_paused","type":"bool","internalType":"bool"}],"outputs":[],"stateMutability":"nonpayable"},{"type":"function","name":"weth","inputs":[],"outputs":[{"name":"","type":"address","internalType":"address"}],"stateMutability":"view"},{"type":"function","name":"withdrawETH","inputs":[],"outputs":[],"stateMutability":"nonpayable"},{"type":"event","name":"PauseToggled","inputs":[{"name":"paused","type":"bool","indexed":false,"internalType":"bool"}],"anonymous":false},{"type":"event","name":"ProjectCreated","inputs":[{"name":"fund","type":"address","indexed":false,"internalType":"address"}],"anonymous":false}],"bytecode":{"object":"0x61010060405234801562000011575f80fd5b50604051620067e3380380620067e3833981016040819052620000349162000195565b6001600160a01b0385166200007a5760405162461bcd60e51b815260206004820152600760248201526610b9b4b3b732b960c91b60448201526064015b60405180910390fd5b6001600160a01b038416620000b85760405162461bcd60e51b815260206004820152600360248201526221706d60e81b604482015260640162000071565b6001600160a01b038316620000f85760405162461bcd60e51b8152602060048201526005602482015264042eecae8d60db1b604482015260640162000071565b6001600160a01b0382166200013c5760405162461bcd60e51b815260206004820152600960248201526821747265617375727960b81b604482015260640162000071565b6001600160a01b0391821660805293811660a05291821660c052811660e052600180546001600160a01b0319169290911691909117905562000201565b80516001600160a01b038116811462000190575f80fd5b919050565b5f805f805f60a08688031215620001aa575f80fd5b620001b58662000179565b9450620001c56020870162000179565b9350620001d56040870162000179565b9250620001e56060870162000179565b9150620001f56080870162000179565b90509295509295909350565b60805160a05160c05160e05161656f620002745f395f81816101b501526106f701525f818161029401526106d601525f818161023e01526106b501525f818161037b015281816103cc0152818161048a015281816105e30152818161069401528181610889015261090d015261656f5ff3fe608060405260043610620000ef575f3560e01c806370905dce116200008e57806370905dce1462000260578063791b98bc146200028157806380d0382914620002b6578063a03039c214620002dc578063b187bd26146200030b578063ce00152d146200032d578063e086e5ec1462000351578063e138818c1462000368578063e90b4bdf146200039d575f80fd5b806309aaa61e14620000f35780630a7ee876146200011d5780632b86ae38146200016057806335da3394146200017c5780633fc8cef314620001a25780634e98911814620001f05780634f606e1c146200021457806365d65e86146200022b575b5f80fd5b348015620000ff575f80fd5b506200010a61012c81565b6040519081526020015b60405180910390f35b34801562000129575f80fd5b506200014f6200013b36600462000aa1565b60026020525f908152604090205460ff1681565b604051901515815260200162000114565b3480156200016c575f80fd5b506200010a66038d7ea4c6800081565b34801562000188575f80fd5b50620001a06200019a36600462000aa1565b620003c1565b005b348015620001ae575f80fd5b50620001d77f000000000000000000000000000000000000000000000000000000000000000081565b6040516001600160a01b03909116815260200162000114565b348015620001fc575f80fd5b50620001a06200020e36600462000ad0565b6200047f565b620001d76200022536600462000b96565b62000550565b34801562000237575f80fd5b50620001d77f000000000000000000000000000000000000000000000000000000000000000081565b3480156200026c575f80fd5b50600154620001d7906001600160a01b031681565b3480156200028d575f80fd5b50620001d77f000000000000000000000000000000000000000000000000000000000000000081565b348015620002c2575f80fd5b50620002cd620007f5565b60405162000114919062000c22565b348015620002e8575f80fd5b506200010a620002fa36600462000aa1565b60036020525f908152604090205481565b34801562000317575f80fd5b506001546200014f90600160a01b900460ff1681565b34801562000339575f80fd5b50620001d76200034b36600462000c70565b62000856565b3480156200035d575f80fd5b50620001a06200087e565b34801562000374575f80fd5b50620001d77f000000000000000000000000000000000000000000000000000000000000000081565b348015620003a9575f80fd5b50620001a0620003bb36600462000aa1565b620009cb565b336001600160a01b037f00000000000000000000000000000000000000000000000000000000000000001614620004155760405162461bcd60e51b81526004016200040c9062000c88565b60405180910390fd5b6001600160a01b0381166200045d5760405162461bcd60e51b815260206004820152600d60248201526c4d65726974583a20217a65726f60981b60448201526064016200040c565b600180546001600160a01b0319166001600160a01b0392909216919091179055565b336001600160a01b037f0000000000000000000000000000000000000000000000000000000000000000161480620004c157506001546001600160a01b031633145b620004f75760405162461bcd60e51b8152602060048201526005602482015264042c2eae8d60db1b60448201526064016200040c565b60018054821515600160a01b0260ff60a01b199091161790556040517f9077d36bc00859b5c3f320310707208543dd35092cb0a0fe117d0c6a558b148b906200054590831515815260200190565b60405180910390a150565b6001545f90600160a01b900460ff1615620005985760405162461bcd60e51b8152602060048201526007602482015266085c185d5cd95960ca1b60448201526064016200040c565b66038d7ea4c680003414620005d95760405162461bcd60e51b81526004016200040c906020808252600490820152632166656560e01b604082015260600190565b34156200068d575f7f00000000000000000000000000000000000000000000000000000000000000006001600160a01b0316346040515f6040518083038185875af1925050503d805f81146200064b576040519150601f19603f3d011682016040523d82523d5f602084013e62000650565b606091505b50509050806200068b5760405162461bcd60e51b815260206004820152600560248201526410bc3332b960d91b60448201526064016200040c565b505b5f303386867f00000000000000000000000000000000000000000000000000000000000000007f00000000000000000000000000000000000000000000000000000000000000007f00000000000000000000000000000000000000000000000000000000000000007f00000000000000000000000000000000000000000000000000000000000000008a604051620007259062000a93565b620007399998979695949392919062000cf0565b604051809103905ff08015801562000753573d5f803e3d5ffd5b505f8054600180820183557f290decd9548b62a8d60345a988386fc84ba6bc95484008f6362f93160ef3e56390910180546001600160a01b0319166001600160a01b03851690811790915580835260026020908152604093849020805460ff191690931790925591519182529192507f3815a547ca4b753ae5cc6a73f3e019b6791faedad7fe0614a6e08d0bcfb137f1910160405180910390a1949350505050565b60605f8054806020026020016040519081016040528092919081815260200182805480156200084c57602002820191905f5260205f20905b81546001600160a01b031681526001909101906020018083116200082d575b5050505050905090565b5f818154811062000865575f80fd5b5f918252602090912001546001600160a01b0316905081565b336001600160a01b037f00000000000000000000000000000000000000000000000000000000000000001614620008c95760405162461bcd60e51b81526004016200040c9062000c88565b47806200090a5760405162461bcd60e51b815260206004820152600e60248201526d09acae4d2e8b07440dcde408aa8960931b60448201526064016200040c565b5f7f00000000000000000000000000000000000000000000000000000000000000006001600160a01b0316826040515f6040518083038185875af1925050503d805f811462000975576040519150601f19603f3d011682016040523d82523d5f602084013e6200097a565b606091505b5050905080620009c75760405162461bcd60e51b815260206004820152601760248201527613595c9a5d160e881dda5d1a191c985dc819985a5b1959604a1b60448201526064016200040c565b5050565b335f9081526002602052604090205460ff1662000a135760405162461bcd60e51b815260206004820152600560248201526408599d5b9960da1b60448201526064016200040c565b6001600160a01b0381165f9081526003602052604090205462000a3a9061012c9062000d7c565b42101562000a785760405162461bcd60e51b815260206004820152600a6024820152690859db1bd8985b0b58d960b21b60448201526064016200040c565b6001600160a01b03165f908152600360205260409020429055565b6157978062000da383390190565b5f6020828403121562000ab2575f80fd5b81356001600160a01b038116811462000ac9575f80fd5b9392505050565b5f6020828403121562000ae1575f80fd5b8135801515811462000ac9575f80fd5b634e487b7160e01b5f52604160045260245ffd5b5f82601f83011262000b15575f80fd5b813567ffffffffffffffff8082111562000b335762000b3362000af1565b604051601f8301601f19908116603f0116810190828211818310171562000b5e5762000b5e62000af1565b8160405283815286602085880101111562000b77575f80fd5b836020870160208301375f602085830101528094505050505092915050565b5f805f6060848603121562000ba9575f80fd5b833567ffffffffffffffff8082111562000bc1575f80fd5b62000bcf8783880162000b05565b9450602086013591508082111562000be5575f80fd5b62000bf38783880162000b05565b9350604086013591508082111562000c09575f80fd5b5062000c188682870162000b05565b9150509250925092565b602080825282518282018190525f9190848201906040850190845b8181101562000c645783516001600160a01b03168352928401929184019160010162000c3d565b50909695505050505050565b5f6020828403121562000c81575f80fd5b5035919050565b60208082526009908201526821747265617375727960b81b604082015260600190565b5f81518084525f5b8181101562000cd15760208185018101518683018201520162000cb3565b505f602082860101526020601f19601f83011685010191505092915050565b6001600160a01b038a811682528981166020830152610120604083018190525f9162000d1f8483018c62000cab565b9150838203606085015262000d35828b62000cab565b898216608086015288821660a086015287821660c086015290861660e0850152838103610100850152905062000d6c818562000cab565b9c9b505050505050505050505050565b8082018082111562000d9c57634e487b7160e01b5f52601160045260245ffd5b9291505056fe61014060405234801562000011575f80fd5b506040516200579738038062005797833981016040819052620000349162000373565b6001600160a01b0389166200007b5760405162461bcd60e51b815260206004820152600860248201526721666163746f727960c01b60448201526064015b60405180910390fd5b6001600160a01b038816620000bc5760405162461bcd60e51b815260206004820152600660248201526510b7bbb732b960d11b604482015260640162000072565b6001600160a01b038516620001005760405162461bcd60e51b815260206004820152600960248201526821747265617375727960b81b604482015260640162000072565b6001600160a01b038416620001425760405162461bcd60e51b815260206004820152600760248201526610b9b4b3b732b960c91b604482015260640162000072565b6001600160a01b038316620001805760405162461bcd60e51b815260206004820152600360248201526221706d60e81b604482015260640162000072565b6001600160a01b038216620001c05760405162461bcd60e51b8152602060048201526005602482015264042eecae8d60db1b604482015260640162000072565b6001600160a01b03808a1660805288811660a05285811660c05284811660e05283811661010052821661012052620001fb61012c426200046d565b60025560076200020c82826200051f565b5086866a21df7ff2bae1694dc00000306040516200022a9062000283565b62000239949392919062000614565b604051809103905ff08015801562000253573d5f803e3d5ffd5b505f80546001600160a01b0319166001600160a01b0392909216919091179055506200065e975050505050505050565b610bf78062004ba083390190565b80516001600160a01b0381168114620002a8575f80fd5b919050565b634e487b7160e01b5f52604160045260245ffd5b5f5b83811015620002dd578181015183820152602001620002c3565b50505f910152565b5f82601f830112620002f5575f80fd5b81516001600160401b0380821115620003125762000312620002ad565b604051601f8301601f19908116603f011681019082821181831017156200033d576200033d620002ad565b8160405283815286602085880101111562000356575f80fd5b62000369846020830160208901620002c1565b9695505050505050565b5f805f805f805f805f6101208a8c0312156200038d575f80fd5b620003988a62000291565b9850620003a860208b0162000291565b60408b01519098506001600160401b0380821115620003c5575f80fd5b620003d38d838e01620002e5565b985060608c0151915080821115620003e9575f80fd5b620003f78d838e01620002e5565b97506200040760808d0162000291565b96506200041760a08d0162000291565b95506200042760c08d0162000291565b94506200043760e08d0162000291565b93506101008c01519150808211156200044e575f80fd5b506200045d8c828d01620002e5565b9150509295985092959850929598565b808201808211156200048d57634e487b7160e01b5f52601160045260245ffd5b92915050565b600181811c90821680620004a857607f821691505b602082108103620004c757634e487b7160e01b5f52602260045260245ffd5b50919050565b601f8211156200051a575f81815260208120601f850160051c81016020861015620004f55750805b601f850160051c820191505b81811015620005165782815560010162000501565b5050505b505050565b81516001600160401b038111156200053b576200053b620002ad565b62000553816200054c845462000493565b84620004cd565b602080601f83116001811462000589575f8415620005715750858301515b5f19600386901b1c1916600185901b17855562000516565b5f85815260208120601f198616915b82811015620005b95788860151825594840194600190910190840162000598565b5085821015620005d757878501515f19600388901b60f8161c191681555b5050505050600190811b01905550565b5f815180845262000600816020860160208601620002c1565b601f01601f19169290920160200192915050565b608081525f620006286080830187620005e7565b82810360208401526200063c8187620005e7565b604084019590955250506001600160a01b039190911660609091015292915050565b60805160a05160c05160e051610100516101205161443d620007635f395f81816103fc01528181610f3d015281816117b00152818161182801528181611859015281816118a301528181611fa601528181612082015281816121310152818161271201526127a501525f818161051401528181610e9f015281816118c8015281816120af0152818161215e0152818161223c01526122cc01525f81816104e1015261120801525f81816107b701528181610d8801528181610e310152818161263c01526127d201525f818161067201528181610aa8015281816114db0152612d2501525f818161071b0152818161100c015281816112e40152611435015261443d5ff3fe60806040526004361061026d575f3560e01c80638d4e40831161014a578063bac0a7d6116100be578063cdb9d90c11610078578063cdb9d90c14610766578063d706f4b41461077b578063debf2fd314610791578063e138818c146107a6578063ee279efe146107d9578063f7ee7a43146104bc575f80fd5b8063bac0a7d6146106c2578063bdd3d825146106d6578063c07ce1fe146106f5578063c45a01551461070a578063c551a2f91461073d578063c5c4744c14610751575f80fd5b80639d4635201161010f5780639d4635201461060e578063a19ed39d14610623578063a41e102014610637578063a4475ce414610661578063b5545a3c14610694578063b652dc2f146106a8575f80fd5b80638d4e408314610594578063943f3100146105bd57806394ccb09f146105d25780639562fac4146105e7578063989905eb146105fa575f80fd5b806342e94c90116101e15780636339614c116101a65780636339614c146104bc57806365d65e86146104d0578063791b98bc146105035780637ea57501146105365780637ecebe0014610555578063804148a314610580575f80fd5b806342e94c901461042b57806348c54b9d1461045657806348d5b1141461046a5780634b60ce771461048a57806353f8b303146104a8575f80fd5b806321b77d631161023257806321b77d631461034d5780632823dfbe14610380578063298f2ac4146103945780632ff2e9dc146103af57806338abb103146103cd5780633fc8cef3146103eb575f80fd5b80630242d7121461027857806305ecd003146102a05780630c3f6acf146102c7578063150b7a02146102e85780631f5064a31461032c575f80fd5b3661027457005b5f80fd5b348015610283575f80fd5b5061028d60085481565b6040519081526020015b60405180910390f35b3480156102ab575f80fd5b506102b46107fa565b60405160029190910b8152602001610297565b3480156102d2575f80fd5b506102db6109da565b6040516102979190613ae3565b3480156102f3575f80fd5b50610313610302366004613b62565b630a85bd0160e11b95945050505050565b6040516001600160e01b03199091168152602001610297565b348015610337575f80fd5b5061034b610346366004613bdf565b610a16565b005b348015610358575f80fd5b50610368670de0b6b3a764000081565b6040516001600160801b039091168152602001610297565b34801561038b575f80fd5b5061034b610a9d565b34801561039f575f80fd5b5061028d670214e8348c4f000081565b3480156103ba575f80fd5b5061028d6a21df7ff2bae1694dc0000081565b3480156103d8575f80fd5b5061028d6a115eec47f6cf7e3500000081565b3480156103f6575f80fd5b5061041e7f000000000000000000000000000000000000000000000000000000000000000081565b6040516102979190613bfa565b348015610436575f80fd5b5061028d610445366004613c0e565b60046020525f908152604090205481565b348015610461575f80fd5b5061034b610c0b565b348015610475575f80fd5b506009546102b490600160a01b900460020b81565b348015610495575f80fd5b505f5461041e906001600160a01b031681565b3480156104b3575f80fd5b5061034b610d7d565b3480156104c7575f80fd5b5061028d603c81565b3480156104db575f80fd5b5061041e7f000000000000000000000000000000000000000000000000000000000000000081565b34801561050e575f80fd5b5061041e7f000000000000000000000000000000000000000000000000000000000000000081565b348015610541575f80fd5b5061028d610550366004613c37565b610f0e565b348015610560575f80fd5b5061028d61056f366004613c0e565b60056020525f908152604090205481565b34801561058b575f80fd5b5061028d600581565b34801561059f575f80fd5b506003546105ad9060ff1681565b6040519015158152602001610297565b3480156105c8575f80fd5b5061028d61012c81565b3480156105dd575f80fd5b5061028d600b5481565b61034b6105f5366004613c52565b61100a565b348015610605575f80fd5b5061028d611410565b348015610619575f80fd5b5061028d600a5481565b34801561062e575f80fd5b5061034b611433565b348015610642575f80fd5b5061064c61070881565b60405163ffffffff9091168152602001610297565b34801561066c575f80fd5b5061041e7f000000000000000000000000000000000000000000000000000000000000000081565b34801561069f575f80fd5b5061034b6128ba565b3480156106b3575f80fd5b5061028d662386f26fc1000081565b3480156106cd575f80fd5b5061028d600a81565b3480156106e1575f80fd5b5060095461041e906001600160a01b031681565b348015610700575f80fd5b5061028d60025481565b348015610715575f80fd5b5061041e7f000000000000000000000000000000000000000000000000000000000000000081565b348015610748575f80fd5b5061034b612a79565b34801561075c575f80fd5b5061028d60015481565b348015610771575f80fd5b5061028d61025881565b348015610786575f80fd5b5061028d62278d0081565b34801561079c575f80fd5b5061028d60065481565b3480156107b1575f80fd5b5061041e7f000000000000000000000000000000000000000000000000000000000000000081565b3480156107e4575f80fd5b506107ed612e05565b6040516102979190613ca1565b6009545f906001600160a01b031661082d5760405162461bcd60e51b815260040161082490613cec565b60405180910390fd5b5f600b544261083c9190613d1f565b90508063ffffffff165f0361085d575050600954600160a01b900460020b90565b5f61070863ffffffff83161061087557610708610877565b815b90508063ffffffff165f0361089a575050600954600160a01b900460020b919050565b6040805160028082526060820183525f9260208301908036833701905050905081815f815181106108cd576108cd613d46565b602002602001019063ffffffff16908163ffffffff16815250505f816001815181106108fb576108fb613d46565b63ffffffff9092166020928302919091019091015260095460405163883bdbfd60e01b81525f916001600160a01b03169063883bdbfd90610940908590600401613d5a565b5f60405180830381865afa15801561095a573d5f803e3d5ffd5b505050506040513d5f823e601f3d908101601f191682016040526109819190810190613e68565b5090508260030b815f8151811061099a5761099a613d46565b6020026020010151826001815181106109b5576109b5613d46565b60200260200101516109c79190613f2d565b6109d19190613f6e565b94505050505090565b5f60025442116109e957505f90565b662386f26fc100006001541015610a005750600190565b60035460ff16610a105750600290565b50600390565b6009546001600160a01b0316610a3e5760405162461bcd60e51b815260040161082490613cec565b6009546040516332148f6760e01b815261ffff831660048201526001600160a01b03909116906332148f67906024015f604051808303815f87803b158015610a84575f80fd5b505af1158015610a96573d5f803e3d5ffd5b5050505050565b336001600160a01b037f00000000000000000000000000000000000000000000000000000000000000001614610afe5760405162461bcd60e51b815260206004820152600660248201526510b7bbb732b960d11b6044820152606401610824565b6002544211610b445760405162461bcd60e51b815260206004820152601260248201527114985a5cd9481b9bdd08199a5b9a5cda195960721b6044820152606401610824565b662386f26fc100006001541015610b865760405162461bcd60e51b8152600401610824906020808252600490820152630216361760e41b604082015260600190565b60035460ff1615610bc15760405162461bcd60e51b815260206004820152600560248201526421646f6e6560d81b6044820152606401610824565b60065415610c055760405162461bcd60e51b8152602060048201526011602482015270105b1c9958591e48185b9b9bdd5b98d959607a1b6044820152606401610824565b42600655565b6003610c156109da565b6003811115610c2657610c26613acf565b14610c5c5760405162461bcd60e51b815260206004820152600660248201526521726561647960d01b6044820152606401610824565b335f9081526004602052604090205480610ca35760405162461bcd60e51b815260206004820152600860248201526710b1b7b73a3934b160c11b6044820152606401610824565b335f818152600460205260408120819055546001546001600160a01b039091169163a9059cbb91610cdf6a115eec47f6cf7e3500000086613fb9565b610ce99190613fd0565b6040518363ffffffff1660e01b8152600401610d06929190613fe3565b6020604051808303815f875af1158015610d22573d5f803e3d5ffd5b505050506040513d601f19601f82011682018060405250810190610d469190614010565b610d7a5760405162461bcd60e51b815260206004820152600560248201526410bc3332b960d91b6044820152606401610824565b50565b336001600160a01b037f00000000000000000000000000000000000000000000000000000000000000001614610de15760405162461bcd60e51b815260206004820152600960248201526821747265617375727960b81b6044820152606401610824565b6008545f03610e185760405162461bcd60e51b81526020600482015260036024820152620216c760ec1b6044820152606401610824565b6040805160808101825260085481526001600160a01b037f00000000000000000000000000000000000000000000000000000000000000008116602083019081526001600160801b0383850181815260608501828152955163fc6f786560e01b815294516004860152915183166024850152905181166044840152925190921660648201527f00000000000000000000000000000000000000000000000000000000000000009091169063fc6f78659060840160408051808303815f875af1158015610ee6573d5f803e3d5ffd5b505050506040513d601f19601f82011682018060405250810190610f0a9190614029565b5050565b6009545f908190610f2e90600160a01b9004600290810b9085900b61404b565b5f549091506001600160a01b037f0000000000000000000000000000000000000000000000000000000000000000811691161115610f7257610f6f81614071565b90505b5f8113610f8c57506a21df7ff2bae1694dc0000092915050565b5f6201d4c08211610f9d5781610fa2565b6201d4c05b90505f670de0b6b3a7640000655af1e67963f4610fc784670214e8348c4f0000613fb9565b610fd19190613fb9565b610fdb9190613fd0565b9050611001610ffe610fec83612e91565b6a21df7ff2bae1694dc0000090612ee6565b90565b95945050505050565b7f00000000000000000000000000000000000000000000000000000000000000006001600160a01b031663b187bd266040518163ffffffff1660e01b8152600401602060405180830381865afa158015611066573d5f803e3d5ffd5b505050506040513d601f19601f8201168201806040525081019061108a9190614010565b156110a75760405162461bcd60e51b81526004016108249061408b565b6002544211156110e15760405162461bcd60e51b81526020600482015260056024820152642174696d6560d81b6044820152606401610824565b8242111561111c5760405162461bcd60e51b815260206004820152600860248201526708595e1c1a5c995960c21b6044820152606401610824565b5f34116111545760405162461bcd60e51b815260040161082490602080825260049082015263085d985b60e21b604082015260600190565b670214e8348c4f00008411156111945760405162461bcd60e51b81526020600482015260056024820152640858d95a5b60da1b6044820152606401610824565b335f8181526005602090815260408083205490516bffffffffffffffffffffffff19606095861b811693820193909352603481018990526054810191909152607481018790523090931b1660948301524660a88301529060c8016040516020818303038152906040528051906020012090507f00000000000000000000000000000000000000000000000000000000000000006001600160a01b031661126f8285858080601f0160208091040260200160405190810160405280939291908181526020018383808284375f92019190915250612efb92505050565b6001600160a01b0316146112ae5760405162461bcd60e51b8152600401610824906020808252600490820152632173696760e01b604082015260600190565b335f9081526005602052604081208054916112c8836140bc565b909155505060405163e90b4bdf60e01b81526001600160a01b037f0000000000000000000000000000000000000000000000000000000000000000169063e90b4bdf90611319903390600401613bfa565b5f604051808303815f87803b158015611330575f80fd5b505af1158015611342573d5f803e3d5ffd5b5050335f90815260046020526040902054879250611362915034906140d4565b11156113995760405162461bcd60e51b815260206004820152600660248201526521616c6c6f6360d01b6044820152606401610824565b335f90815260046020526040812080543492906113b79084906140d4565b925050819055503460015f8282546113cf91906140d4565b909155505060405134815233907f4d154d4aae216bed6d0926db77c00df2b57c6b5ba4eee05775de20facede3a7b9060200160405180910390a25050505050565b6114306a115eec47f6cf7e350000006a21df7ff2bae1694dc00000613d1f565b81565b7f00000000000000000000000000000000000000000000000000000000000000006001600160a01b031663b187bd266040518163ffffffff1660e01b8152600401602060405180830381865afa15801561148f573d5f803e3d5ffd5b505050506040513d601f19601f820116820180604052508101906114b39190614010565b156114d05760405162461bcd60e51b81526004016108249061408b565b336001600160a01b037f000000000000000000000000000000000000000000000000000000000000000016146115545760405162461bcd60e51b815260206004820152602360248201527f4d65726974583a2063616c6c6572206973206e6f742070726f6a656374206f776044820152623732b960e91b6064820152608401610824565b5f6006541180156115735750603c60065461156f91906140d4565b4210155b6115cb5760405162461bcd60e51b8152602060048201526024808201527f4d65726974583a203668206e6f7469636520706572696f64206e6f7420656c616044820152631c1cd95960e21b6064820152608401610824565b610258603c6006546115dd91906140d4565b6115e791906140d4565b4211156116425760405162461bcd60e51b815260206004820152602360248201527f4d65726974583a206c61756e63682065787069726564206166746572206e6f7460448201526269636560e81b6064820152608401610824565b62278d0060025461165391906140d4565b4211156116a25760405162461bcd60e51b815260206004820152601d60248201527f4d65726974583a206c61756e63682077696e646f7720657870697265640000006044820152606401610824565b662386f26fc1000060015410156116fb5760405162461bcd60e51b815260206004820152601c60248201527f4d65726974583a20736f667420636170206e6f742072656163686564000000006044820152606401610824565b60035460ff161561174a5760405162461bcd60e51b815260206004820152601960248201527813595c9a5d160e88185b1c9958591e48199a5b985b1a5e9959603a1b6044820152606401610824565b6003805460ff1916600190811790915542600b819055600a55545f6064611772600584613fb9565b61177c9190613fd0565b90505f6117898284613d1f565b90505f6117ac6a115eec47f6cf7e350000006a21df7ff2bae1694dc00000613d1f565b90507f00000000000000000000000000000000000000000000000000000000000000006001600160a01b031663d0e30db0836040518263ffffffff1660e01b81526004015f604051808303818588803b158015611807575f80fd5b505af1158015611819573d5f803e3d5ffd5b50505f80546001600160a01b037f000000000000000000000000000000000000000000000000000000000000000081169116109350915082905061187d577f0000000000000000000000000000000000000000000000000000000000000000611889565b5f546001600160a01b03165b90505f826118a1575f546001600160a01b03166118c3565b7f00000000000000000000000000000000000000000000000000000000000000005b90505f7f000000000000000000000000000000000000000000000000000000000000000090505f816001600160a01b031663c45a01556040518163ffffffff1660e01b8152600401602060405180830381865afa158015611926573d5f803e3d5ffd5b505050506040513d601f19601f8201168201806040525081019061194a91906140e7565b90505f8086611959578861195b565b875b90505f87611969578861196b565b895b90505f82116119b65760405162461bcd60e51b81526020600482015260176024820152764d65726974583a20616d6f756e7430206973207a65726f60481b6044820152606401610824565b5f6119c0836130f2565b90505f6119cc836130f2565b90505f8211611a185760405162461bcd60e51b81526020600482015260186024820152774d65726974583a207371727428613029206973207a65726f60401b6044820152606401610824565b5f611a2783606084901b613fd0565b90506401000276a3816001600160a01b031611611a915760405162461bcd60e51b815260206004820152602260248201527f4d65726974583a207371727450726963652062656c6f77205633206d696e696d604482015261756d60f01b6064820152608401610824565b604051630b4c774160e11b81526001600160a01b038b811660048301528a81166024830152610bb860448301525f9190891690631698ee8290606401602060405180830381865afa158015611ae8573d5f803e3d5ffd5b505050506040513d601f19601f82011682018060405250810190611b0c91906140e7565b90506001600160a01b038116611bfa576040516309f56ab160e11b81526001600160a01b038c811660048301528b81166024830152610bb8604483015283811660648301528a16906313ead562906084016020604051808303815f875af1158015611b79573d5f803e3d5ffd5b505050506040513d601f19601f82011682018060405250810190611b9d91906140e7565b96506001600160a01b038716611bf55760405162461bcd60e51b815260206004820152601c60248201527f4d65726974583a20706f6f6c206372656174696f6e206661696c6564000000006044820152606401610824565b611e0b565b809650806001600160a01b0316631a6865026040518163ffffffff1660e01b8152600401602060405180830381865afa158015611c39573d5f803e3d5ffd5b505050506040513d601f19601f82011682018060405250810190611c5d9190614118565b6001600160801b031615611cc25760405162461bcd60e51b815260206004820152602660248201527f4d65726974583a20506f6f6c207072652d7365656465642077697468206c697160448201526575696469747960d01b6064820152608401610824565b5f816001600160a01b0316633850c7bd6040518163ffffffff1660e01b815260040160e060405180830381865afa158015611cff573d5f803e3d5ffd5b505050506040513d601f19601f82011682018060405250810190611d239190614131565b5050505050509050806001600160a01b03165f03611d995760405163f637731d60e01b81526001600160a01b0383169063f637731d90611d67908690600401613bfa565b5f604051808303815f87803b158015611d7e575f80fd5b505af1158015611d90573d5f803e3d5ffd5b50505050611e09565b826001600160a01b0316816001600160a01b031614611e095760405162461bcd60e51b815260206004820152602660248201527f4d65726974583a20506f6f6c2068696a61636b656420776974682077726f6e6760448201526520707269636560d01b6064820152608401610824565b505b5050506001600160a01b0384169250611e739150505760405162461bcd60e51b815260206004820152602160248201527f4d65726974583a20706f6f6c206e6f7420666f756e6420616674657220696e696044820152601d60fa1b6064820152608401610824565b5f805f836001600160a01b0316633850c7bd6040518163ffffffff1660e01b815260040160e060405180830381865afa158015611eb2573d5f803e3d5ffd5b505050506040513d601f19601f82011682018060405250810190611ed69190614131565b5050505050915050611ef661753082611eef91906141c8565b603c613245565b9250611f07611eef617530836141ed565b9150620d89b319600284900b1215611f2157620d89b31992505b620d89b4600283900b1315611f3757620d89b491505b8160020b8360020b12611f8c5760405162461bcd60e51b815260206004820152601a60248201527f4d65726974583a20696e76616c6964207469636b2072616e67650000000000006044820152606401610824565b506040516370a0823160e01b81525f906001600160a01b037f000000000000000000000000000000000000000000000000000000000000000016906370a0823190611fdb903090600401613bfa565b602060405180830381865afa158015611ff6573d5f803e3d5ffd5b505050506040513d601f19601f8201168201806040525081019061201a9190614212565b90505f811161206b5760405162461bcd60e51b815260206004820152601f60248201527f4d65726974583a207a65726f2057455448206166746572206465706f736974006044820152606401610824565b60405163095ea7b360e01b81526001600160a01b037f0000000000000000000000000000000000000000000000000000000000000000169063095ea7b3906120d9907f0000000000000000000000000000000000000000000000000000000000000000905f90600401613fe3565b6020604051808303815f875af11580156120f5573d5f803e3d5ffd5b505050506040513d601f19601f820116820180604052508101906121199190614010565b5060405163095ea7b360e01b81526001600160a01b037f0000000000000000000000000000000000000000000000000000000000000000169063095ea7b390612188907f0000000000000000000000000000000000000000000000000000000000000000908590600401613fe3565b6020604051808303815f875af11580156121a4573d5f803e3d5ffd5b505050506040513d601f19601f820116820180604052508101906121c89190614010565b6122145760405162461bcd60e51b815260206004820152601b60248201527f4d65726974583a205745544820617070726f7665206661696c656400000000006044820152606401610824565b5f805460405163095ea7b360e01b81526001600160a01b039091169163095ea7b391612264917f000000000000000000000000000000000000000000000000000000000000000091600401613fe3565b6020604051808303815f875af1158015612280573d5f803e3d5ffd5b505050506040513d601f19601f820116820180604052508101906122a49190614010565b505f5460405163095ea7b360e01b81526001600160a01b039091169063095ea7b3906122f6907f0000000000000000000000000000000000000000000000000000000000000000908e90600401613fe3565b6020604051808303815f875af1158015612312573d5f803e3d5ffd5b505050506040513d601f19601f820116820180604052508101906123369190614010565b6123825760405162461bcd60e51b815260206004820152601c60248201527f4d65726974583a20746f6b656e20617070726f7665206661696c6564000000006044820152606401610824565b620dbba05a116123e05760405162461bcd60e51b8152602060048201526024808201527f4d65726974583a20696e73756666696369656e742067617320666f72204c50206044820152631b5a5b9d60e21b6064820152608401610824565b5f808a6123ed57826123ef565b8b5b90505f8b6123fd578c6123ff565b835b60408051610160810182526001600160a01b038e811682528d81166020830152610bb88284015260028a810b606084015289900b608083015260a0820186905260c082018490525f60e0830181905261010083015230610120830152426101408301529151634418b22b60e11b8152929350908b169163883164569161248791600401614229565b6080604051808303815f875af11580156124a3573d5f803e3d5ffd5b505050506040513d601f19601f820116820180604052508101906124c791906142ed565b509194505050821515915061252e90505760405162461bcd60e51b815260206004820152602560248201527f4d65726974583a204c50206d696e742072657475726e6564207a65726f20746f6044820152641ad95b925960da1b6064820152608401610824565b6008819055600980546001600160a01b0319166001600160a01b03871690811790915560408051633850c7bd60e01b815290515f9291633850c7bd9160048083019260e09291908290030181865afa15801561258c573d5f803e3d5ffd5b505050506040513d601f19601f820116820180604052508101906125b09190614131565b50506009805462ffffff909516600160a01b0262ffffff60a01b19861681179091556040516332148f6760e01b81526001600160a01b03918216919095161795506332148f67945061260c93609693506004019150613faa9050565b5f604051808303815f87803b158015612623575f80fd5b505af1158015612635573d5f803e3d5ffd5b505050505f7f00000000000000000000000000000000000000000000000000000000000000006001600160a01b03168e6040515f6040518083038185875af1925050503d805f81146126a2576040519150601f19603f3d011682016040523d82523d5f602084013e6126a7565b606091505b50509050806126f85760405162461bcd60e51b815260206004820152601b60248201527f4d65726974583a20747265617375727920666565206661696c656400000000006044820152606401610824565b506040516370a0823160e01b81525f906001600160a01b037f000000000000000000000000000000000000000000000000000000000000000016906370a0823190612747903090600401613bfa565b602060405180830381865afa158015612762573d5f803e3d5ffd5b505050506040513d601f19601f820116820180604052508101906127869190614212565b905080156128705760405163a9059cbb60e01b81526001600160a01b037f0000000000000000000000000000000000000000000000000000000000000000169063a9059cbb906127fc907f0000000000000000000000000000000000000000000000000000000000000000908590600401613fe3565b6020604051808303815f875af1158015612818573d5f803e3d5ffd5b505050506040513d601f19601f8201168201806040525081019061283c9190614010565b6128705760405162461bcd60e51b815260206004820152600560248201526408591d5cdd60da1b6044820152606401610824565b7f3b5dec10e4b8c2c75f531dd56ea1f951af29f7cf4461f02319ff915e7efd5f3d86836040516128a1929190613fe3565b60405180910390a1505050505050505050505050505050565b5f6128c36109da565b905060018160038111156128d9576128d9613acf565b1480612910575060028160038111156128f4576128f4613acf565b148015612910575062278d0060025461290d91906140d4565b42115b8061295e5750600281600381111561292a5761292a613acf565b14801561293857505f600654115b801561295e5750610258603c60065461295191906140d4565b61295b91906140d4565b42115b6129a15760405162461bcd60e51b8152602060048201526014602482015273526566756e64206e6f7420617661696c61626c6560601b6044820152606401610824565b335f90815260046020526040902054806129e65760405162461bcd60e51b81526020600482015260066024820152652166756e647360d01b6044820152606401610824565b335f818152600460205260408082208290555190919083908381818185875af1925050503d805f8114612a34576040519150601f19603f3d011682016040523d82523d5f602084013e612a39565b606091505b5050905080612a745760405162461bcd60e51b8152602060048201526007602482015266085c99599d5b9960ca1b6044820152606401610824565b505050565b60035460ff16612ab45760405162461bcd60e51b81526004016108249060208082526004908201526310b334b760e11b604082015260600190565b6009546001600160a01b0316612adc5760405162461bcd60e51b815260040161082490613cec565b600b54612aec90610708906140d4565b421015612b235760405162461bcd60e51b8152602060048201526005602482015264021747761760dc1b6044820152606401610824565b603c600a54612b3291906140d4565b421015612b675760405162461bcd60e51b81526020600482015260036024820152620858d960ea1b6044820152606401610824565b60095460408051630d34328160e11b81529051670de0b6b3a7640000926001600160a01b031691631a6865029160048083019260209291908290030181865afa158015612bb6573d5f803e3d5ffd5b505050506040513d601f19601f82011682018060405250810190612bda9190614118565b6001600160801b03161015612c1c5760405162461bcd60e51b8152602060048201526008602482015267216c6f772d6c697160c01b6044820152606401610824565b5f612c256107fa565b90505f612c3182610f0e565b90505f805f9054906101000a90046001600160a01b03166001600160a01b03166318160ddd6040518163ffffffff1660e01b8152600401602060405180830381865afa158015612c83573d5f803e3d5ffd5b505050506040513d601f19601f82011682018060405250810190612ca79190614212565b9050808211612ce15760405162461bcd60e51b81526004016108249060208082526004908201526310b4b73360e11b604082015260600190565b5f612cec8284613d1f565b905042600a819055505f612710600a83612d069190613fb9565b612d109190613fd0565b5f549091506001600160a01b03166340c10f197f0000000000000000000000000000000000000000000000000000000000000000612d4e8486613d1f565b6040518363ffffffff1660e01b8152600401612d6b929190613fe3565b5f604051808303815f87803b158015612d82575f80fd5b505af1158015612d94573d5f803e3d5ffd5b505050505f811115610a96575f546040516340c10f1960e01b81526001600160a01b03909116906340c10f1990612dd19033908590600401613fe3565b5f604051808303815f87803b158015612de8575f80fd5b505af1158015612dfa573d5f803e3d5ffd5b505050505050505050565b60078054612e1290614326565b80601f0160208091040260200160405190810160405280929190818152602001828054612e3e90614326565b8015612e895780601f10612e6057610100808354040283529160200191612e89565b820191905f5260205f20905b815481529060010190602001808311612e6c57829003601f168201915b505050505081565b5f81680736ea4425c11ac630811115612ec057604051630d7b1d6560e11b815260048101849052602401610824565b6714057b7ef767814f8102612ede670de0b6b3a7640000820461328d565b949350505050565b5f612ef4610ffe84846132e1565b9392505050565b6040517f19457468657265756d205369676e6564204d6573736167653a0a3332000000006020820152603c81018390525f908190605c016040516020818303038152906040528051906020012090508251604114612f855760405162461bcd60e51b815260206004820152600760248201526610b9b4b3b632b760c91b6044820152606401610824565b6020830151604084015160608501515f1a601b811015612fad57612faa601b8261435e565b90505b8060ff16601b1480612fc257508060ff16601c145b612ff35760405162461bcd60e51b815260206004820152600260248201526110bb60f11b6044820152606401610824565b6fa2a8918ca85bafe22016d0b997e4df60600160ff1b038211156130485760405162461bcd60e51b815260206004820152600c60248201526b21732d6d616c6c6561626c6560a01b6044820152606401610824565b604080515f8082526020820180845287905260ff841692820192909252606081018590526080810184905260019060a0016020604051602081039080840390855afa158015613099573d5f803e3d5ffd5b5050604051601f1901519150506001600160a01b0381166130e55760405162461bcd60e51b8152600401610824906020808252600490820152632172656360e01b604082015260600190565b9450505050505b92915050565b5f600182116130ff575090565b816001600160801b82106131185760809190911c9060401b5b600160401b821061312e5760409190911c9060201b5b64010000000082106131455760209190911c9060101b5b62010000821061315a5760109190911c9060081b5b610100821061316e5760089190911c9060041b5b601082106131815760049190911c9060021b5b6004821061318d5760011b5b600302600190811c908185816131a5576131a5613f5a565b048201901c905060018185816131bd576131bd613f5a565b048201901c905060018185816131d5576131d5613f5a565b048201901c905060018185816131ed576131ed613f5a565b048201901c9050600181858161320557613205613f5a565b048201901c9050600181858161321d5761321d613f5a565b048201901c905061323c81858161323657613236613f5a565b04821190565b90039392505050565b5f806132518385614377565b90505f8460020b128015613270575061326a83856143a6565b60020b15155b15613283578061327f816143c7565b9150505b612ede83826143e8565b5f81680a688906bd8affffff8111156132bc5760405163b3b6ba1f60e01b815260048101849052602401610824565b5f6132d3670de0b6b3a7640000604084901b613fd0565b9050612ede610ffe82613393565b5f80805f19848609848602925082811083820303915050805f036133125750670de0b6b3a7640000900490506130ec565b670de0b6b3a7640000811061334457604051635173648d60e01b81526004810186905260248101859052604401610824565b5f670de0b6b3a764000085870962040000818503049310909103600160ee1b02919091177faccb18165bd6fe31ae1cf318dc5b51eee0e1ba569b88cd74c1773b91fac106690291505092915050565b600160bf1b60ff60381b82161561347c576001603f1b8216156133bf5768016a09e667f3bcc9090260401c5b6001603e1b8216156133da576801306fe0a31b7152df0260401c5b6001603d1b8216156133f5576801172b83c7d517adce0260401c5b6001603c1b8216156134105768010b5586cf9890f62a0260401c5b6001603b1b82161561342b576801059b0d31585743ae0260401c5b6001603a1b82161561344657680102c9a3e778060ee70260401c5b600160391b8216156134615768010163da9fb33356d80260401c5b600160381b82161561347c57680100b1afa5abcbed610260401c5b66ff00000000000082161561357b5766800000000000008216156134a95768010058c86da1c09ea20260401c5b66400000000000008216156134c7576801002c605e2e8cec500260401c5b66200000000000008216156134e557680100162f3904051fa10260401c5b6610000000000000821615613503576801000b175effdc76ba0260401c5b660800000000000082161561352157680100058ba01fb9f96d0260401c5b660400000000000082161561353f5768010002c5cc37da94920260401c5b660200000000000082161561355d576801000162e525ee05470260401c5b660100000000000082161561357b5768010000b17255775c040260401c5b65ff000000000082161561367157658000000000008216156135a6576801000058b91b5bc9ae0260401c5b654000000000008216156135c357680100002c5c89d5ec6d0260401c5b652000000000008216156135e05768010000162e43f4f8310260401c5b651000000000008216156135fd57680100000b1721bcfc9a0260401c5b6508000000000082161561361a5768010000058b90cf1e6e0260401c5b65040000000000821615613637576801000002c5c863b73f0260401c5b6502000000000082161561365457680100000162e430e5a20260401c5b65010000000000821615613671576801000000b1721835510260401c5b64ff0000000082161561375e5764800000000082161561369a57680100000058b90c0b490260401c5b6440000000008216156136b65768010000002c5c8601cc0260401c5b6420000000008216156136d2576801000000162e42fff00260401c5b6410000000008216156136ee5768010000000b17217fbb0260401c5b64080000000082161561370a576801000000058b90bfce0260401c5b64040000000082161561372657680100000002c5c85fe30260401c5b6402000000008216156137425768010000000162e42ff10260401c5b64010000000082161561375e57680100000000b17217f80260401c5b63ff0000008216156138425763800000008216156137855768010000000058b90bfc0260401c5b63400000008216156137a0576801000000002c5c85fe0260401c5b63200000008216156137bb57680100000000162e42ff0260401c5b63100000008216156137d6576801000000000b17217f0260401c5b63080000008216156137f157680100000000058b90c00260401c5b630400000082161561380c5768010000000002c5c8600260401c5b6302000000821615613827576801000000000162e4300260401c5b63010000008216156138425768010000000000b172180260401c5b62ff000082161561391d5762800000821615613867576801000000000058b90c0260401c5b6240000082161561388157680100000000002c5c860260401c5b6220000082161561389b5768010000000000162e430260401c5b621000008216156138b557680100000000000b17210260401c5b620800008216156138cf5768010000000000058b910260401c5b620400008216156138e9576801000000000002c5c80260401c5b6202000082161561390357680100000000000162e40260401c5b6201000082161561391d576801000000000000b1720260401c5b61ff008216156139ef5761800082161561394057680100000000000058b90260401c5b6140008216156139595768010000000000002c5d0260401c5b612000821615613972576801000000000000162e0260401c5b61100082161561398b5768010000000000000b170260401c5b6108008216156139a4576801000000000000058c0260401c5b6104008216156139bd57680100000000000002c60260401c5b6102008216156139d657680100000000000001630260401c5b6101008216156139ef57680100000000000000b10260401c5b60ff821615613ab8576080821615613a1057680100000000000000590260401c5b6040821615613a28576801000000000000002c0260401c5b6020821615613a4057680100000000000000160260401c5b6010821615613a58576801000000000000000b0260401c5b6008821615613a7057680100000000000000060260401c5b6004821615613a8857680100000000000000030260401c5b6002821615613aa057680100000000000000010260401c5b6001821615613ab857680100000000000000010260401c5b670de0b6b3a76400000260409190911c60bf031c90565b634e487b7160e01b5f52602160045260245ffd5b6020810160048310613b0357634e487b7160e01b5f52602160045260245ffd5b91905290565b6001600160a01b0381168114610d7a575f80fd5b5f8083601f840112613b2d575f80fd5b50813567ffffffffffffffff811115613b44575f80fd5b602083019150836020828501011115613b5b575f80fd5b9250929050565b5f805f805f60808688031215613b76575f80fd5b8535613b8181613b09565b94506020860135613b9181613b09565b935060408601359250606086013567ffffffffffffffff811115613bb3575f80fd5b613bbf88828901613b1d565b969995985093965092949392505050565b61ffff81168114610d7a575f80fd5b5f60208284031215613bef575f80fd5b8135612ef481613bd0565b6001600160a01b0391909116815260200190565b5f60208284031215613c1e575f80fd5b8135612ef481613b09565b8060020b8114610d7a575f80fd5b5f60208284031215613c47575f80fd5b8135612ef481613c29565b5f805f8060608587031215613c65575f80fd5b8435935060208501359250604085013567ffffffffffffffff811115613c89575f80fd5b613c9587828801613b1d565b95989497509550505050565b5f6020808352835180828501525f5b81811015613ccc57858101830151858201604001528201613cb0565b505f604082860101526040601f19601f8301168501019250505092915050565b602080825260059082015264085c1bdbdb60da1b604082015260600190565b634e487b7160e01b5f52601160045260245ffd5b818103818111156130ec576130ec613d0b565b634e487b7160e01b5f52604160045260245ffd5b634e487b7160e01b5f52603260045260245ffd5b602080825282518282018190525f9190848201906040850190845b81811015613d9757835163ffffffff1683529284019291840191600101613d75565b50909695505050505050565b604051601f8201601f1916810167ffffffffffffffff81118282101715613dcc57613dcc613d32565b604052919050565b5f67ffffffffffffffff821115613ded57613ded613d32565b5060051b60200190565b5f82601f830112613e06575f80fd5b81516020613e1b613e1683613dd4565b613da3565b82815260059290921b84018101918181019086841115613e39575f80fd5b8286015b84811015613e5d578051613e5081613b09565b8352918301918301613e3d565b509695505050505050565b5f8060408385031215613e79575f80fd5b825167ffffffffffffffff80821115613e90575f80fd5b818501915085601f830112613ea3575f80fd5b81516020613eb3613e1683613dd4565b82815260059290921b84018101918181019089841115613ed1575f80fd5b948201945b83861015613efe5785518060060b8114613eef575f8081fd5b82529482019490820190613ed6565b91880151919650909350505080821115613f16575f80fd5b50613f2385828601613df7565b9150509250929050565b600682810b9082900b03667fffffffffffff198112667fffffffffffff821317156130ec576130ec613d0b565b634e487b7160e01b5f52601260045260245ffd5b5f8160060b8360060b80613f8457613f84613f5a565b667fffffffffffff1982145f1982141615613fa157613fa1613d0b565b90059392505050565b61ffff91909116815260200190565b80820281158282048414176130ec576130ec613d0b565b5f82613fde57613fde613f5a565b500490565b6001600160a01b03929092168252602082015260400190565b8051801515811461400b575f80fd5b919050565b5f60208284031215614020575f80fd5b612ef482613ffc565b5f806040838503121561403a575f80fd5b505080516020909101519092909150565b8181035f83128015838313168383128216171561406a5761406a613d0b565b5092915050565b5f600160ff1b820161408557614085613d0b565b505f0390565b60208082526017908201527613595c9a5d160e88141c9bdd1bd8dbdb0814185d5cd959604a1b604082015260600190565b5f600182016140cd576140cd613d0b565b5060010190565b808201808211156130ec576130ec613d0b565b5f602082840312156140f7575f80fd5b8151612ef481613b09565b80516001600160801b038116811461400b575f80fd5b5f60208284031215614128575f80fd5b612ef482614102565b5f805f805f805f60e0888a031215614147575f80fd5b875161415281613b09565b602089015190975061416381613c29565b604089015190965061417481613bd0565b606089015190955061418581613bd0565b608089015190945061419681613bd0565b60a089015190935060ff811681146141ac575f80fd5b91506141ba60c08901613ffc565b905092959891949750929550565b600282810b9082900b03627fffff198112627fffff821317156130ec576130ec613d0b565b600281810b9083900b01627fffff8113627fffff19821217156130ec576130ec613d0b565b5f60208284031215614222575f80fd5b5051919050565b81516001600160a01b031681526101608101602083015161425560208401826001600160a01b03169052565b50604083015161426c604084018262ffffff169052565b506060830151614281606084018260020b9052565b506080830151614296608084018260020b9052565b5060a083015160a083015260c083015160c083015260e083015160e0830152610100808401518184015250610120808401516142dc828501826001600160a01b03169052565b505061014092830151919092015290565b5f805f8060808587031215614300575f80fd5b8451935061431060208601614102565b6040860151606090960151949790965092505050565b600181811c9082168061433a57607f821691505b60208210810361435857634e487b7160e01b5f52602260045260245ffd5b50919050565b60ff81811683821601908111156130ec576130ec613d0b565b5f8160020b8360020b8061438d5761438d613f5a565b627fffff1982145f1982141615613fa157613fa1613d0b565b5f8260020b806143b8576143b8613f5a565b808360020b0791505092915050565b5f8160020b627fffff1981036143df576143df613d0b565b5f190192915050565b5f8260020b8260020b028060020b915080821461406a5761406a613d0b56fea2646970667358221220e5c67a637eb57d9fbab29d6c24ae71f7d962a0389f4a9c8cc33902b40cc83e1464736f6c6343000814003360a060405234801562000010575f80fd5b5060405162000bf738038062000bf78339810160408190526200003391620001b3565b6001600160a01b038116620000785760405162461bcd60e51b815260206004820152600760248201526610b6b4b73a32b960c91b604482015260640160405180910390fd5b5f620000858582620002ce565b506001620000948482620002ce565b5060028290556001600160a01b03811660808190525f818152600360209081526040808320869055518581527fddf252ad1be2c89b69c2b068fc378daa952ba7f163c4a11628f55a4df523b3ef910160405180910390a35050505062000396565b634e487b7160e01b5f52604160045260245ffd5b5f82601f83011262000119575f80fd5b81516001600160401b0380821115620001365762000136620000f5565b604051601f8301601f19908116603f01168101908282118183101715620001615762000161620000f5565b816040528381526020925086838588010111156200017d575f80fd5b5f91505b83821015620001a0578582018301518183018401529082019062000181565b5f93810190920192909252949350505050565b5f805f8060808587031215620001c7575f80fd5b84516001600160401b0380821115620001de575f80fd5b620001ec8883890162000109565b9550602087015191508082111562000202575f80fd5b50620002118782880162000109565b60408701516060880151919550935090506001600160a01b038116811462000237575f80fd5b939692955090935050565b600181811c908216806200025757607f821691505b6020821081036200027657634e487b7160e01b5f52602260045260245ffd5b50919050565b601f821115620002c9575f81815260208120601f850160051c81016020861015620002a45750805b601f850160051c820191505b81811015620002c557828155600101620002b0565b5050505b505050565b81516001600160401b03811115620002ea57620002ea620000f5565b6200030281620002fb845462000242565b846200027c565b602080601f83116001811462000338575f8415620003205750858301515b5f19600386901b1c1916600185901b178555620002c5565b5f85815260208120601f198616915b82811015620003685788860151825594840194600190910190840162000347565b50858210156200038657878501515f19600388901b60f8161c191681555b5050505050600190811b01905550565b608051610842620003b55f395f818160cd015261048001526108425ff3fe608060405234801561000f575f80fd5b50600436106100a6575f3560e01c8063313ce5671161006e578063313ce5671461015457806340c10f191461016e57806370a082311461018357806395d89b41146101a2578063a9059cbb146101aa578063dd62ed3e146101bd575f80fd5b806306fdde03146100aa57806307546172146100c8578063095ea7b31461010757806318160ddd1461012a57806323b872dd14610141575b5f80fd5b6100b26101e7565b6040516100bf9190610625565b60405180910390f35b6100ef7f000000000000000000000000000000000000000000000000000000000000000081565b6040516001600160a01b0390911681526020016100bf565b61011a61011536600461068b565b610272565b60405190151581526020016100bf565b61013360025481565b6040519081526020016100bf565b61011a61014f3660046106b3565b6102de565b61015c601281565b60405160ff90911681526020016100bf565b61018161017c36600461068b565b610475565b005b6101336101913660046106ec565b60036020525f908152604090205481565b6100b261054a565b61011a6101b836600461068b565b610557565b6101336101cb36600461070c565b600460209081525f928352604080842090915290825290205481565b5f80546101f39061073d565b80601f016020809104026020016040519081016040528092919081815260200182805461021f9061073d565b801561026a5780601f106102415761010080835404028352916020019161026a565b820191905f5260205f20905b81548152906001019060200180831161024d57829003601f168201915b505050505081565b335f8181526004602090815260408083206001600160a01b038716808552925280832085905551919290917f8c5be1e5ebec7d5bd14f71427d1e84f3dd0314c0f7b2291e5b200ac8c7c3b925906102cc9086815260200190565b60405180910390a35060015b92915050565b5f6001600160a01b03831661030e5760405162461bcd60e51b815260040161030590610775565b60405180910390fd5b6001600160a01b0384165f908152600360205260409020548211156103455760405162461bcd60e51b815260040161030590610794565b6001600160a01b0384165f9081526004602090815260408083203384529091529020548211156103a05760405162461bcd60e51b815260206004820152600660248201526521616c6c6f7760d01b6044820152606401610305565b6001600160a01b0384165f908152600460209081526040808320338452909152812080548492906103d29084906107c6565b90915550506001600160a01b0384165f90815260036020526040812080548492906103fe9084906107c6565b90915550506001600160a01b0383165f908152600360205260408120805484929061042a9084906107d9565b92505081905550826001600160a01b0316846001600160a01b03165f805160206107ed8339815191528460405161046391815260200190565b60405180910390a35060019392505050565b336001600160a01b037f000000000000000000000000000000000000000000000000000000000000000016146104d75760405162461bcd60e51b815260206004820152600760248201526610b6b4b73a32b960c91b6044820152606401610305565b8060025f8282546104e891906107d9565b90915550506001600160a01b0382165f90815260036020526040812080548392906105149084906107d9565b90915550506040518181526001600160a01b038316905f905f805160206107ed8339815191529060200160405180910390a35050565b600180546101f39061073d565b5f6001600160a01b03831661057e5760405162461bcd60e51b815260040161030590610775565b335f908152600360205260409020548211156105ac5760405162461bcd60e51b815260040161030590610794565b335f90815260036020526040812080548492906105ca9084906107c6565b90915550506001600160a01b0383165f90815260036020526040812080548492906105f69084906107d9565b90915550506040518281526001600160a01b0384169033905f805160206107ed833981519152906020016102cc565b5f6020808352835180828501525f5b8181101561065057858101830151858201604001528201610634565b505f604082860101526040601f19601f8301168501019250505092915050565b80356001600160a01b0381168114610686575f80fd5b919050565b5f806040838503121561069c575f80fd5b6106a583610670565b946020939093013593505050565b5f805f606084860312156106c5575f80fd5b6106ce84610670565b92506106dc60208501610670565b9150604084013590509250925092565b5f602082840312156106fc575f80fd5b61070582610670565b9392505050565b5f806040838503121561071d575f80fd5b61072683610670565b915061073460208401610670565b90509250929050565b600181811c9082168061075157607f821691505b60208210810361076f57634e487b7160e01b5f52602260045260245ffd5b50919050565b602080825260059082015264217a65726f60d81b604082015260600190565b6020808252600490820152630858985b60e21b604082015260600190565b634e487b7160e01b5f52601160045260245ffd5b818103818111156102d8576102d86107b2565b808201808211156102d8576102d86107b256feddf252ad1be2c89b69c2b068fc378daa952ba7f163c4a11628f55a4df523b3efa264697066735822122028e0749cdd3a7c505311c907179947f9b8967de3f4b8875d27770015a4ec3b6864736f6c63430008140033a2646970667358221220796c510204c2fe3a270545c4875d70b4e6ad1dcee02882013fcdfb87e445753964736f6c63430008140033","linkReferences":{}},"methodIdentifiers":{"GLOBAL_COOLDOWN()":"09aaa61e","LISTING_FEE()":"2b86ae38","allDeployedProjects(uint256)":"ce00152d","backendSigner()":"65d65e86","checkAndRecordCooldown(address)":"e90b4bdf","emergencyAdmin()":"70905dce","getAllProjects()":"80d03829","isPaused()":"b187bd26","isValidFund(address)":"0a7ee876","lastContributionTime(address)":"a03039c2","launchNewProject(string,string,string)":"4f606e1c","platformTreasury()":"e138818c","positionManager()":"791b98bc","setEmergencyAdmin(address)":"35da3394","setProtocolPause(bool)":"4e989118","weth()":"3fc8cef3","withdrawETH()":"e086e5ec"},"id":0}