{"abi":[{"type":"constructor","inputs":[{"name":"_signer","type":"address","internalType":"address"},{"name":"_baseURI","type":"string","internalType":"string"},{"name":"_owner","type":"address","internalType":"address"}],"stateMutability":"nonpayable"},{"type":"function","name":"CAMPAIGN_LENGTH","inputs":[],"outputs":[{"name":"","type":"uint256","internalType":"uint256"}],"stateMutability":"view"},{"type":"function","name":"MINT_FEE","inputs":[],"outputs":[{"name":"","type":"uint256","internalType":"uint256"}],"stateMutability":"view"},{"type":"function","name":"approve","inputs":[{"name":"to","type":"address","internalType":"address"},{"name":"tokenId","type":"uint256","internalType":"uint256"}],"outputs":[],"stateMutability":"nonpayable"},{"type":"function","name":"balanceOf","inputs":[{"name":"owner_","type":"address","internalType":"address"}],"outputs":[{"name":"","type":"uint256","internalType":"uint256"}],"stateMutability":"view"},{"type":"function","name":"baseMetadataURI","inputs":[],"outputs":[{"name":"","type":"string","internalType":"string"}],"stateMutability":"view"},{"type":"function","name":"baseScores","inputs":[{"name":"","type":"address","internalType":"address"}],"outputs":[{"name":"","type":"uint256","internalType":"uint256"}],"stateMutability":"view"},{"type":"function","name":"campaignActive","inputs":[],"outputs":[{"name":"","type":"bool","internalType":"bool"}],"stateMutability":"view"},{"type":"function","name":"campaignEnded","inputs":[],"outputs":[{"name":"","type":"bool","internalType":"bool"}],"stateMutability":"view"},{"type":"function","name":"endTime","inputs":[],"outputs":[{"name":"","type":"uint256","internalType":"uint256"}],"stateMutability":"view"},{"type":"function","name":"finalScore","inputs":[{"name":"user","type":"address","internalType":"address"}],"outputs":[{"name":"","type":"uint256","internalType":"uint256"}],"stateMutability":"view"},{"type":"function","name":"getApproved","inputs":[{"name":"tokenId","type":"uint256","internalType":"uint256"}],"outputs":[{"name":"","type":"address","internalType":"address"}],"stateMutability":"view"},{"type":"function","name":"hasMinted","inputs":[{"name":"","type":"address","internalType":"address"}],"outputs":[{"name":"","type":"bool","internalType":"bool"}],"stateMutability":"view"},{"type":"function","name":"inviteCount","inputs":[{"name":"","type":"address","internalType":"address"}],"outputs":[{"name":"","type":"uint256","internalType":"uint256"}],"stateMutability":"view"},{"type":"function","name":"isApprovedForAll","inputs":[{"name":"owner_","type":"address","internalType":"address"},{"name":"operator","type":"address","internalType":"address"}],"outputs":[{"name":"","type":"bool","internalType":"bool"}],"stateMutability":"view"},{"type":"function","name":"mint","inputs":[{"name":"baseScore","type":"uint256","internalType":"uint256"},{"name":"inviter","type":"address","internalType":"address"},{"name":"signature","type":"bytes","internalType":"bytes"}],"outputs":[],"stateMutability":"payable"},{"type":"function","name":"name","inputs":[],"outputs":[{"name":"","type":"string","internalType":"string"}],"stateMutability":"view"},{"type":"function","name":"owner","inputs":[],"outputs":[{"name":"","type":"address","internalType":"address"}],"stateMutability":"view"},{"type":"function","name":"ownerOf","inputs":[{"name":"tokenId","type":"uint256","internalType":"uint256"}],"outputs":[{"name":"","type":"address","internalType":"address"}],"stateMutability":"view"},{"type":"function","name":"referralBonuses","inputs":[{"name":"","type":"address","internalType":"address"}],"outputs":[{"name":"","type":"uint256","internalType":"uint256"}],"stateMutability":"view"},{"type":"function","name":"safeTransferFrom","inputs":[{"name":"from","type":"address","internalType":"address"},{"name":"to","type":"address","internalType":"address"},{"name":"tokenId","type":"uint256","internalType":"uint256"}],"outputs":[],"stateMutability":"nonpayable"},{"type":"function","name":"safeTransferFrom","inputs":[{"name":"from","type":"address","internalType":"address"},{"name":"to","type":"address","internalType":"address"},{"name":"tokenId","type":"uint256","internalType":"uint256"},{"name":"","type":"bytes","internalType":"bytes"}],"outputs":[],"stateMutability":"nonpayable"},{"type":"function","name":"setApprovalForAll","inputs":[{"name":"operator","type":"address","internalType":"address"},{"name":"approved_","type":"bool","internalType":"bool"}],"outputs":[],"stateMutability":"nonpayable"},{"type":"function","name":"setBaseMetadataURI","inputs":[{"name":"_uri","type":"string","internalType":"string"}],"outputs":[],"stateMutability":"nonpayable"},{"type":"function","name":"setSignerAddress","inputs":[{"name":"_signer","type":"address","internalType":"address"}],"outputs":[],"stateMutability":"nonpayable"},{"type":"function","name":"signerAddress","inputs":[],"outputs":[{"name":"","type":"address","internalType":"address"}],"stateMutability":"view"},{"type":"function","name":"startCampaign","inputs":[],"outputs":[],"stateMutability":"nonpayable"},{"type":"function","name":"startTime","inputs":[],"outputs":[{"name":"","type":"uint256","internalType":"uint256"}],"stateMutability":"view"},{"type":"function","name":"supportsInterface","inputs":[{"name":"interfaceId","type":"bytes4","internalType":"bytes4"}],"outputs":[{"name":"","type":"bool","internalType":"bool"}],"stateMutability":"pure"},{"type":"function","name":"symbol","inputs":[],"outputs":[{"name":"","type":"string","internalType":"string"}],"stateMutability":"view"},{"type":"function","name":"tokenOfOwner","inputs":[{"name":"","type":"address","internalType":"address"}],"outputs":[{"name":"","type":"uint256","internalType":"uint256"}],"stateMutability":"view"},{"type":"function","name":"tokenURI","inputs":[{"name":"tokenId","type":"uint256","internalType":"uint256"}],"outputs":[{"name":"","type":"string","internalType":"string"}],"stateMutability":"view"},{"type":"function","name":"totalMinted","inputs":[],"outputs":[{"name":"","type":"uint256","internalType":"uint256"}],"stateMutability":"view"},{"type":"function","name":"transferFrom","inputs":[{"name":"from","type":"address","internalType":"address"},{"name":"to","type":"address","internalType":"address"},{"name":"tokenId","type":"uint256","internalType":"uint256"}],"outputs":[],"stateMutability":"nonpayable"},{"type":"function","name":"withdrawFees","inputs":[],"outputs":[],"stateMutability":"nonpayable"},{"type":"event","name":"Approval","inputs":[{"name":"owner","type":"address","indexed":true,"internalType":"address"},{"name":"approved","type":"address","indexed":true,"internalType":"address"},{"name":"tokenId","type":"uint256","indexed":true,"internalType":"uint256"}],"anonymous":false},{"type":"event","name":"ApprovalForAll","inputs":[{"name":"owner","type":"address","indexed":true,"internalType":"address"},{"name":"operator","type":"address","indexed":true,"internalType":"address"},{"name":"approved","type":"bool","indexed":false,"internalType":"bool"}],"anonymous":false},{"type":"event","name":"CampaignStarted","inputs":[{"name":"startTime","type":"uint256","indexed":false,"internalType":"uint256"},{"name":"endTime","type":"uint256","indexed":false,"internalType":"uint256"}],"anonymous":false},{"type":"event","name":"IdentityMinted","inputs":[{"name":"minter","type":"address","indexed":true,"internalType":"address"},{"name":"tokenId","type":"uint256","indexed":false,"internalType":"uint256"},{"name":"baseScore","type":"uint256","indexed":false,"internalType":"uint256"},{"name":"inviter","type":"address","indexed":false,"internalType":"address"}],"anonymous":false},{"type":"event","name":"ReferralBonusAdded","inputs":[{"name":"inviter","type":"address","indexed":true,"internalType":"address"},{"name":"bonus","type":"uint256","indexed":false,"internalType":"uint256"},{"name":"referree","type":"address","indexed":true,"internalType":"address"}],"anonymous":false},{"type":"event","name":"Transfer","inputs":[{"name":"from","type":"address","indexed":true,"internalType":"address"},{"name":"to","type":"address","indexed":true,"internalType":"address"},{"name":"tokenId","type":"uint256","indexed":true,"internalType":"uint256"}],"anonymous":false}],"bytecode":{"object":"0x608060405234801562000010575f80fd5b50604051620022d0380380620022d0833981016040819052620000339162000153565b6001600160a01b038316620000825760405162461bcd60e51b815260206004820152601060248201526f2837a39d103d32b9379039b4b3b732b960811b60448201526064015b60405180910390fd5b6001600160a01b038116620000cc5760405162461bcd60e51b815260206004820152600f60248201526e2837a39d103d32b9379037bbb732b960891b604482015260640162000079565b600580546001600160a01b0319166001600160a01b0385161790556006620000f58382620002d2565b50600480546001600160a01b0319166001600160a01b0392909216919091179055505060016009556200039a565b80516001600160a01b03811681146200013a575f80fd5b919050565b634e487b7160e01b5f52604160045260245ffd5b5f805f6060848603121562000166575f80fd5b620001718462000123565b602085810151919450906001600160401b038082111562000190575f80fd5b818701915087601f830112620001a4575f80fd5b815181811115620001b957620001b96200013f565b604051601f8201601f19908116603f01168101908382118183101715620001e457620001e46200013f565b816040528281528a86848701011115620001fc575f80fd5b5f93505b828410156200021f578484018601518185018701529285019262000200565b5f8684830101528097505050505050506200023d6040850162000123565b90509250925092565b600181811c908216806200025b57607f821691505b6020821081036200027a57634e487b7160e01b5f52602260045260245ffd5b50919050565b601f821115620002cd575f81815260208120601f850160051c81016020861015620002a85750805b601f850160051c820191505b81811015620002c957828155600101620002b4565b5050505b505050565b81516001600160401b03811115620002ee57620002ee6200013f565b6200030681620002ff845462000246565b8462000280565b602080601f8311600181146200033c575f8415620003245750858301515b5f19600386901b1c1916600185901b178555620002c9565b5f85815260208120601f198616915b828110156200036c578886015182559484019460019091019084016200034b565b50858210156200038a57878501515f19600388901b60f8161c191681555b5050505050600190811b01905550565b611f2880620003a85f395ff3fe6080604052600436106101b5575f3560e01c80635b7633d0116100ea578063a22cb4651161008e578063a22cb46514610525578063a2309ff814610544578063a8b78ed014610558578063b46948761461056c578063b88d4fde14610597578063c87b56dd146105b6578063d7bf81a3146105d5578063e8b89dd8146105ef578063e985e9c514610603575f80fd5b80635b7633d0146104325780636352211e1461045157806370a082311461047057806373c025191461048f57806378e97925146104a25780637e518ec8146104b75780638da5cb5b146104d657806395d89b41146104f5575f80fd5b8063294cdf0d1161015c578063294cdf0d146103135780632e2b80dc1461033e5780633197cbb61461036957806338e21cce1461037e5780633bc47fbe146103ac57806342842e0e146103c0578063476343ee146103df57806357b24e6b146103f35780635b2bd79e1461041e575f80fd5b806301ffc9a7146101b9578063046dc166146101ed57806306fdde031461020e578063081812fc1461025b578063095ea7b3146102925780631919e11e146102b157806322420c98146102de57806323b872dd146102f4575b5f80fd5b3480156101c4575f80fd5b506101d86101d336600461180b565b61064a565b60405190151581526020015b60405180910390f35b3480156101f8575f80fd5b5061020c610207366004611854565b61069b565b005b348015610219575f80fd5b5061024e6040518060400160405280601581526020017450726f6f66206f6620476173204964656e7469747960581b81525081565b6040516101e4919061188f565b348015610266575f80fd5b5061027a6102753660046118c1565b610739565b6040516001600160a01b0390911681526020016101e4565b34801561029d575f80fd5b5061020c6102ac3660046118d8565b610787565b3480156102bc575f80fd5b506102d06102cb366004611854565b6108a0565b6040519081526020016101e4565b3480156102e9575f80fd5b506102d062093a8081565b3480156102ff575f80fd5b5061020c61030e366004611900565b6108cd565b34801561031e575f80fd5b506102d061032d366004611854565b600d6020525f908152604090205481565b348015610349575f80fd5b506102d0610358366004611854565b600b6020525f908152604090205481565b348015610374575f80fd5b506102d060085481565b348015610389575f80fd5b506101d8610398366004611854565b600a6020525f908152604090205460ff1681565b3480156103b7575f80fd5b506101d8610903565b3480156103cb575f80fd5b5061020c6103da366004611900565b61091b565b3480156103ea575f80fd5b5061020c61094e565b3480156103fe575f80fd5b506102d061040d366004611854565b600e6020525f908152604090205481565b348015610429575f80fd5b5061024e610a5c565b34801561043d575f80fd5b5060055461027a906001600160a01b031681565b34801561045c575f80fd5b5061027a61046b3660046118c1565b610ae8565b34801561047b575f80fd5b506102d061048a366004611854565b610b48565b61020c61049d36600461197e565b610bb1565b3480156104ad575f80fd5b506102d060075481565b3480156104c2575f80fd5b5061020c6104d13660046119e8565b610fe8565b3480156104e1575f80fd5b5060045461027a906001600160a01b031681565b348015610500575f80fd5b5061024e60405180604001604052806005815260200164141bd1d25160da1b81525081565b348015610530575f80fd5b5061020c61053f366004611a93565b61101e565b34801561054f575f80fd5b506102d0611089565b348015610563575f80fd5b5061020c611099565b348015610577575f80fd5b506102d0610586366004611854565b600c6020525f908152604090205481565b3480156105a2575f80fd5b5061020c6105b1366004611acc565b61116f565b3480156105c1575f80fd5b5061024e6105d03660046118c1565b6111a9565b3480156105e0575f80fd5b506102d06601c6bf5263400081565b3480156105fa575f80fd5b506101d8611211565b34801561060e575f80fd5b506101d861061d366004611b36565b6001600160a01b039182165f90815260036020908152604080832093909416825291909152205460ff1690565b5f6380ac58cd60e01b6001600160e01b03198316148061067a57506301ffc9a760e01b6001600160e01b03198316145b806106955750635b5e139f60e01b6001600160e01b03198316145b92915050565b6004546001600160a01b031633146106ce5760405162461bcd60e51b81526004016106c590611b67565b60405180910390fd5b6001600160a01b0381166107175760405162461bcd60e51b815260206004820152601060248201526f2837a39d103d32b9379039b4b3b732b960811b60448201526064016106c5565b600580546001600160a01b0319166001600160a01b0392909216919091179055565b5f818152602081905260408120546001600160a01b031661076c5760405162461bcd60e51b81526004016106c590611b8c565b505f908152600260205260409020546001600160a01b031690565b5f61079182610ae8565b9050336001600160a01b03821614806107cc57506001600160a01b0381165f90815260036020908152604080832033845290915290205460ff165b6107e85760405162461bcd60e51b81526004016106c590611bb9565b806001600160a01b0316836001600160a01b0316036108455760405162461bcd60e51b815260206004820152601960248201527822a9219b99189d1030b8383937bb30b6103a379037bbb732b960391b60448201526064016106c5565b5f8281526002602052604080822080546001600160a01b0319166001600160a01b0387811691821790925591518593918516917f8c5be1e5ebec7d5bd14f71427d1e84f3dd0314c0f7b2291e5b200ac8c7c3b92591a4505050565b6001600160a01b0381165f908152600c6020908152604080832054600b9092528220546106959190611bf4565b6108d73382611236565b6108f35760405162461bcd60e51b81526004016106c590611bb9565b6108fe8383836112b2565b505050565b5f80600754118015610916575060085442115b905090565b6001600160a01b0382163b156109435760405162461bcd60e51b81526004016106c590611c07565b6108fe8383836108cd565b6004546001600160a01b031633146109785760405162461bcd60e51b81526004016106c590611b67565b47806109c15760405162461bcd60e51b8152602060048201526018602482015277506f473a206e6f7468696e6720746f20776974686472617760401b60448201526064016106c5565b6004546040515f916001600160a01b03169083908381818185875af1925050503d805f8114610a0b576040519150601f19603f3d011682016040523d82523d5f602084013e610a10565b606091505b5050905080610a585760405162461bcd60e51b8152602060048201526014602482015273141bd1ce881dda5d1a191c985dc819985a5b195960621b60448201526064016106c5565b5050565b60068054610a6990611c3a565b80601f0160208091040260200160405190810160405280929190818152602001828054610a9590611c3a565b8015610ae05780601f10610ab757610100808354040283529160200191610ae0565b820191905f5260205f20905b815481529060010190602001808311610ac357829003601f168201915b505050505081565b5f818152602081905260408120546001600160a01b0316806106955760405162461bcd60e51b815260206004820152601960248201527822a9219b99189d103737b732bc34b9ba32b73a103a37b5b2b760391b60448201526064016106c5565b5f6001600160a01b038216610b965760405162461bcd60e51b81526020600482015260146024820152734552433732313a207a65726f206164647265737360601b60448201526064016106c5565b506001600160a01b03165f9081526001602052604090205490565b5f600754118015610bc457506007544210155b610c0c5760405162461bcd60e51b8152602060048201526019602482015278141bd1ce8818d85b5c185a59db881b9bdd081cdd185c9d1959603a1b60448201526064016106c5565b600854421115610c545760405162461bcd60e51b8152602060048201526013602482015272141bd1ce8818d85b5c185a59db88195b991959606a1b60448201526064016106c5565b6601c6bf526340003414610ca05760405162461bcd60e51b8152602060048201526013602482015272506f473a2077726f6e67206d696e742066656560681b60448201526064016106c5565b335f908152600a602052604090205460ff1615610cf55760405162461bcd60e51b8152602060048201526013602482015272141bd1ce88185b1c9958591e481b5a5b9d1959606a1b60448201526064016106c5565b612710841115610d475760405162461bcd60e51b815260206004820152601b60248201527f506f473a206261736553636f7265206f7574206f662072616e6765000000000060448201526064016106c5565b604080514660208083019190915230606090811b6bffffffffffffffffffffffff199081168486015233821b81166054850152606884018990529087901b1660888301528251607c818403018152609c830180855281519183019190912060055460bc601f880185900490940285018401909552858252936001600160a01b031692610dee92859291889188918291018382808284375f9201919091525061140492505050565b6001600160a01b031614610e3d5760405162461bcd60e51b8152602060048201526016602482015275506f473a20696e76616c6964207369676e617475726560501b60448201526064016106c5565b335f908152600a60209081526040808320805460ff19166001179055600b9091528120869055600980549082610e7283611c72565b90915550335f818152600d60205260409020829055909150610e94908261160b565b6001600160a01b03851615801590610ec357506001600160a01b0385165f908152600a602052604090205460ff165b8015610ed857506001600160a01b0385163314155b15610f95575f6064610eeb886008611c8a565b610ef59190611cb5565b6001600160a01b0387165f908152600c6020526040812080549293508392909190610f21908490611bf4565b90915550506001600160a01b0386165f908152600e60205260408120805460019290610f4e908490611bf4565b909155505060405181815233906001600160a01b038816907ff917ec0da504fb9efc8b61c0b1d96804818e9c61cfd7aedeef15264d582124129060200160405180910390a3505b60408051828152602081018890526001600160a01b03871681830152905133917f0bb2ec78c91d0b45012ad4dd43a368bfeae4cef6db84e0d41ab43a00bae5bd7c919081900360600190a2505050505050565b6004546001600160a01b031633146110125760405162461bcd60e51b81526004016106c590611b67565b6006610a588282611d15565b335f8181526003602090815260408083206001600160a01b03871680855290835292819020805460ff191686151590811790915590519081529192917f17307eab39ab6107e8899845ad3d59bd9653f200f220920489ca2b5937696c31910160405180910390a35050565b5f60016009546109169190611dd1565b6004546001600160a01b031633146110c35760405162461bcd60e51b81526004016106c590611b67565b600754156111135760405162461bcd60e51b815260206004820152601d60248201527f506f473a2063616d706169676e20616c7265616479207374617274656400000060448201526064016106c5565b4260078190556111279062093a8090611bf4565b60088190556007546040517f12221045b1a0b41f55e22c5a246cb89b0d3ba3c774890fc7b1099d077949f53692611165928252602082015260400190565b60405180910390a1565b6001600160a01b0384163b156111975760405162461bcd60e51b81526004016106c590611c07565b6111a28585856108cd565b5050505050565b5f818152602081905260409020546060906001600160a01b03166111df5760405162461bcd60e51b81526004016106c590611b8c565b60066111ea8361170d565b6040516020016111fb929190611de4565b6040516020818303038152906040529050919050565b5f8060075411801561122557506007544210155b801561091657505060085442111590565b5f8061124183610ae8565b9050806001600160a01b0316846001600160a01b0316148061127b57505f838152600260205260409020546001600160a01b038581169116145b806112aa57506001600160a01b038082165f9081526003602090815260408083209388168352929052205460ff165b949350505050565b826001600160a01b03166112c582610ae8565b6001600160a01b03161461130c5760405162461bcd60e51b815260206004820152600e60248201526d22a9219b99189d1010b7bbb732b960911b60448201526064016106c5565b6001600160a01b0382166113325760405162461bcd60e51b81526004016106c590611e77565b5f81815260026020908152604080832080546001600160a01b03191690556001600160a01b03861683526001918290528220805491929091611375908490611dd1565b90915550506001600160a01b0382165f90815260016020819052604082208054919290916113a4908490611bf4565b90915550505f8181526020819052604080822080546001600160a01b0319166001600160a01b0386811691821790925591518493918716917fddf252ad1be2c89b69c2b068fc378daa952ba7f163c4a11628f55a4df523b3ef91a4505050565b6040517f19457468657265756d205369676e6564204d6573736167653a0a3332000000006020820152603c81018390525f908190605c0160405160208183030381529060405280519060200120905082516041146114935760405162461bcd60e51b815260206004820152600c60248201526b2837a39d1010b9b4b3b632b760a11b60448201526064016106c5565b6020830151604084015160608501515f1a601b8110156114bb576114b8601b82611e9d565b90505b8060ff16601b14806114d057508060ff16601c145b6115065760405162461bcd60e51b81526020600482015260076024820152662837a39d1010bb60c91b60448201526064016106c5565b6fa2a8918ca85bafe22016d0b997e4df60600160ff1b038211156115605760405162461bcd60e51b8152602060048201526011602482015270506f473a2021732d6d616c6c6561626c6560781b60448201526064016106c5565b604080515f8082526020820180845287905260ff841692820192909252606081018590526080810184905260019060a0016020604051602081039080840390855afa1580156115b1573d5f803e3d5ffd5b5050604051601f1901519150506001600160a01b0381166116005760405162461bcd60e51b8152602060048201526009602482015268506f473a202172656360b81b60448201526064016106c5565b979650505050505050565b6001600160a01b0382166116315760405162461bcd60e51b81526004016106c590611e77565b5f818152602081905260409020546001600160a01b0316156116865760405162461bcd60e51b815260206004820152600e60248201526d4552433732313a2065786973747360901b60448201526064016106c5565b6001600160a01b0382165f90815260016020819052604082208054919290916116b0908490611bf4565b90915550505f8181526020819052604080822080546001600160a01b0319166001600160a01b03861690811790915590518392907fddf252ad1be2c89b69c2b068fc378daa952ba7f163c4a11628f55a4df523b3ef908290a45050565b6060815f036117335750506040805180820190915260018152600360fc1b602082015290565b815f5b811561175c578061174681611c72565b91506117559050600a83611cb5565b9150611736565b5f8167ffffffffffffffff811115611776576117766119d4565b6040519080825280601f01601f1916602001820160405280156117a0576020820181803683370190505b5090505b84156112aa57816117b481611eb6565b92506117c39050600a86611ecb565b6117ce906030611bf4565b60f81b8183815181106117e3576117e3611ede565b60200101906001600160f81b03191690815f1a905350611804600a86611cb5565b94506117a4565b5f6020828403121561181b575f80fd5b81356001600160e01b031981168114611832575f80fd5b9392505050565b80356001600160a01b038116811461184f575f80fd5b919050565b5f60208284031215611864575f80fd5b61183282611839565b5f5b8381101561188757818101518382015260200161186f565b50505f910152565b602081525f82518060208401526118ad81604085016020870161186d565b601f01601f19169190910160400192915050565b5f602082840312156118d1575f80fd5b5035919050565b5f80604083850312156118e9575f80fd5b6118f283611839565b946020939093013593505050565b5f805f60608486031215611912575f80fd5b61191b84611839565b925061192960208501611839565b9150604084013590509250925092565b5f8083601f840112611949575f80fd5b50813567ffffffffffffffff811115611960575f80fd5b602083019150836020828501011115611977575f80fd5b9250929050565b5f805f8060608587031215611991575f80fd5b843593506119a160208601611839565b9250604085013567ffffffffffffffff8111156119bc575f80fd5b6119c887828801611939565b95989497509550505050565b634e487b7160e01b5f52604160045260245ffd5b5f602082840312156119f8575f80fd5b813567ffffffffffffffff80821115611a0f575f80fd5b818401915084601f830112611a22575f80fd5b813581811115611a3457611a346119d4565b604051601f8201601f19908116603f01168101908382118183101715611a5c57611a5c6119d4565b81604052828152876020848701011115611a74575f80fd5b826020860160208301375f928101602001929092525095945050505050565b5f8060408385031215611aa4575f80fd5b611aad83611839565b915060208301358015158114611ac1575f80fd5b809150509250929050565b5f805f805f60808688031215611ae0575f80fd5b611ae986611839565b9450611af760208701611839565b935060408601359250606086013567ffffffffffffffff811115611b19575f80fd5b611b2588828901611939565b969995985093965092949392505050565b5f8060408385031215611b47575f80fd5b611b5083611839565b9150611b5e60208401611839565b90509250929050565b6020808252600b908201526a2837a39d1010b7bbb732b960a91b604082015260600190565b602080825260139082015272115490cdcc8c4e881b9bdb995e1a5cdd195b9d606a1b604082015260600190565b6020808252600d908201526c08aa4866e6462744042c2eae8d609b1b604082015260600190565b634e487b7160e01b5f52601160045260245ffd5b8082018082111561069557610695611be0565b6020808252601990820152782837a39d1037379031b7b73a3930b1ba103932b1b2b4bb32b960391b604082015260600190565b600181811c90821680611c4e57607f821691505b602082108103611c6c57634e487b7160e01b5f52602260045260245ffd5b50919050565b5f60018201611c8357611c83611be0565b5060010190565b808202811582820484141761069557610695611be0565b634e487b7160e01b5f52601260045260245ffd5b5f82611cc357611cc3611ca1565b500490565b601f8211156108fe575f81815260208120601f850160051c81016020861015611cee5750805b601f850160051c820191505b81811015611d0d57828155600101611cfa565b505050505050565b815167ffffffffffffffff811115611d2f57611d2f6119d4565b611d4381611d3d8454611c3a565b84611cc8565b602080601f831160018114611d76575f8415611d5f5750858301515b5f19600386901b1c1916600185901b178555611d0d565b5f85815260208120601f198616915b82811015611da457888601518255948401946001909101908401611d85565b5085821015611dc157878501515f19600388901b60f8161c191681555b5050505050600190811b01905550565b8181038181111561069557610695611be0565b5f808454611df181611c3a565b60018281168015611e095760018114611e1e57611e4a565b60ff1984168752821515830287019450611e4a565b885f526020805f205f5b85811015611e415781548a820152908401908201611e28565b50505082870194505b505050508351611e5e81836020880161186d565b64173539b7b760d91b9101908152600501949350505050565b6020808252600c908201526b4552433732313a207a65726f60a01b604082015260600190565b60ff818116838216019081111561069557610695611be0565b5f81611ec457611ec4611be0565b505f190190565b5f82611ed957611ed9611ca1565b500690565b634e487b7160e01b5f52603260045260245ffdfea26469706673582212200dd7c75a65d29134dc9c9fac5d3a67951fee6030b7cabdeb88d2542eecaf99e364736f6c63430008140033","linkReferences":{}},"methodIdentifiers":{"CAMPAIGN_LENGTH()":"22420c98","MINT_FEE()":"d7bf81a3","approve(address,uint256)":"095ea7b3","balanceOf(address)":"70a08231","baseMetadataURI()":"5b2bd79e","baseScores(address)":"2e2b80dc","campaignActive()":"e8b89dd8","campaignEnded()":"3bc47fbe","endTime()":"3197cbb6","finalScore(address)":"1919e11e","getApproved(uint256)":"081812fc","hasMinted(address)":"38e21cce","inviteCount(address)":"57b24e6b","isApprovedForAll(address,address)":"e985e9c5","mint(uint256,address,bytes)":"73c02519","name()":"06fdde03","owner()":"8da5cb5b","ownerOf(uint256)":"6352211e","referralBonuses(address)":"b4694876","safeTransferFrom(address,address,uint256)":"42842e0e","safeTransferFrom(address,address,uint256,bytes)":"b88d4fde","setApprovalForAll(address,bool)":"a22cb465","setBaseMetadataURI(string)":"7e518ec8","setSignerAddress(address)":"046dc166","signerAddress()":"5b7633d0","startCampaign()":"a8b78ed0","startTime()":"78e97925","supportsInterface(bytes4)":"01ffc9a7","symbol()":"95d89b41","tokenOfOwner(address)":"294cdf0d","tokenURI(uint256)":"c87b56dd","totalMinted()":"a2309ff8","transferFrom(address,address,uint256)":"23b872dd","withdrawFees()":"476343ee"},"id":1}